{"abi":[{"type":"constructor","inputs":[],"stateMutability":"nonpayable"},{"type":"function","name":"addSupportedToken","inputs":[{"name":"token","type":"address","internalType":"address"}],"outputs":[],"stateMutability":"nonpayable"},{"type":"function","name":"deposit","inputs":[{"name":"token","type":"address","internalType":"address"},{"name":"amount","type":"uint256","internalType":"uint256"},{"name":"recipient","type":"address","internalType":"address"}],"outputs":[],"stateMutability":"nonpayable"},{"type":"function","name":"distribute","inputs":[{"name":"token","type":"address","internalType":"address"},{"name":"recipient","type":"address","internalType":"address"},{"name":"amount","type":"uint256","internalType":"uint256"},{"name":"depositNonce","type":"uint256","internalType":"uint256"}],"outputs":[],"stateMutability":"nonpayable"},{"type":"function","name":"emergencyWithdraw","inputs":[{"name":"token","type":"address","internalType":"address"},{"name":"amount","type":"uint256","internalType":"uint256"}],"outputs":[],"stateMutability":"nonpayable"},{"type":"function","name":"isSupportedToken","inputs":[{"name":"token","type":"address","internalType":"address"}],"outputs":[{"name":"","type":"bool","internalType":"bool"}],"stateMutability":"view"},{"type":"function","name":"owner","inputs":[],"outputs":[{"name":"","type":"address","internalType":"address"}],"stateMutability":"view"},{"type":"function","name":"pause","inputs":[],"outputs":[],"stateMutability":"nonpayable"},{"type":"function","name":"removeSupportedToken","inputs":[{"name":"token","type":"address","internalType":"address"}],"outputs":[],"stateMutability":"nonpayable"},{"type":"function","name":"renounceOwnership","inputs":[],"outputs":[],"stateMutability":"nonpayable"},{"type":"function","name":"transferOwnership","inputs":[{"name":"newOwner","type":"address","internalType":"address"}],"outputs":[],"stateMutability":"nonpayable"},{"type":"function","name":"unpause","inputs":[],"outputs":[],"stateMutability":"nonpayable"},{"type":"event","name":"Deposit","inputs":[{"name":"token","type":"address","indexed":true,"internalType":"address"},{"name":"from","type":"address","indexed":true,"internalType":"address"},{"name":"to","type":"address","indexed":true,"internalType":"address"},{"name":"amount","type":"uint256","indexed":false,"internalType":"uint256"},{"name":"nonce","type":"uint256","indexed":false,"internalType":"uint256"}],"anonymous":false},{"type":"event","name":"Distribution","inputs":[{"name":"token","type":"address","indexed":true,"internalType":"address"},{"name":"to","type":"address","indexed":true,"internalType":"address"},{"name":"amount","type":"uint256","indexed":false,"internalType":"uint256"},{"name":"nonce","type":"uint256","indexed":false,"internalType":"uint256"}],"anonymous":false},{"type":"event","name":"OwnershipTransferred","inputs":[{"name":"previousOwner","type":"address","indexed":true,"internalType":"address"},{"name":"newOwner","type":"address","indexed":true,"internalType":"address"}],"anonymous":false},{"type":"event","name":"TokenAdded","inputs":[{"name":"token","type":"address","indexed":false,"internalType":"address"}],"anonymous":false},{"type":"error","name":"OwnableInvalidOwner","inputs":[{"name":"owner","type":"address","internalType":"address"}]},{"type":"error","name":"OwnableUnauthorizedAccount","inputs":[{"name":"account","type":"address","internalType":"address"}]},{"type":"error","name":"ReentrancyGuardReentrantCall","inputs":[]},{"type":"error","name":"SafeERC20FailedOperation","inputs":[{"name":"token","type":"address","internalType":"address"}]}],"bytecode":{"object":"0x608060405234801561000f575f80fd5b50338061003557604051631e4fbdf760e01b81525f600482015260240160405180910390fd5b61003e81610056565b50600180555f6002556005805460ff191690556100a5565b5f80546001600160a01b038381166001600160a01b0319831681178455604051919092169283917f8be0079c531659141344cd1fd0a4f28419497f9722a3daafe3b4186f6b6457e09190a35050565b610957806100b25f395ff3fe608060405234801561000f575f80fd5b50600436106100a6575f3560e01c80638456cb591161006e5780638456cb59146101225780638da5cb5b1461012a5780638fde63091461014457806395ccea6714610157578063f2fde38b1461016a578063f45346dc1461017d575f80fd5b8063240028e8146100aa5780633f4ba83a146100ea5780636d69fcaf146100f4578063715018a614610107578063763191901461010f575b5f80fd5b6100d56100b836600461083d565b6001600160a01b03165f9081526003602052604090205460ff1690565b60405190151581526020015b60405180910390f35b6100f2610190565b005b6100f261010236600461083d565b6101a4565b6100f2610205565b6100f261011d36600461083d565b610218565b6100f2610240565b5f546040516001600160a01b0390911681526020016100e1565b6100f261015236600461085d565b610257565b6100f261016536600461089c565b610461565b6100f261017836600461083d565b610492565b6100f261018b3660046108c4565b6104cf565b610198610679565b6005805460ff19169055565b6101ac610679565b6001600160a01b0381165f81815260036020908152604091829020805460ff1916600117905590519182527f784c8f4dbf0ffedd6e72c76501c545a70f8b203b30a26ce542bf92ba87c248a4910160405180910390a150565b61020d610679565b6102165f6106a5565b565b610220610679565b6001600160a01b03165f908152600360205260409020805460ff19169055565b610248610679565b6005805460ff19166001179055565b61025f6106f4565b60055460ff16156102a85760405162461bcd60e51b815260206004820152600e60248201526d109c9a5919d94e881c185d5cd95960921b60448201526064015b60405180910390fd5b5f546001600160a01b031633146103015760405162461bcd60e51b815260206004820152601760248201527f4272696467653a206e6f74206469737472696275746f72000000000000000000604482015260640161029f565b6001600160a01b0384165f9081526003602052604090205460ff166103685760405162461bcd60e51b815260206004820152601b60248201527f4272696467653a20746f6b656e206e6f7420737570706f727465640000000000604482015260640161029f565b5f8181526004602052604090205460ff16156103d05760405162461bcd60e51b815260206004820152602160248201527f4272696467653a206465706f73697420616c72656164792070726f63657373656044820152601960fa1b606482015260840161029f565b5f818152600460205260409020805460ff191660011790556103fc6001600160a01b038516848461071e565b826001600160a01b0316846001600160a01b03167f6d15a659055d215da034d05fa563a8cbecd0b8cb54a020ae1882601d7ce15a77848460405161044a929190918252602082015260400190565b60405180910390a361045b60018055565b50505050565b610469610679565b61048e61047d5f546001600160a01b031690565b6001600160a01b038416908361071e565b5050565b61049a610679565b6001600160a01b0381166104c357604051631e4fbdf760e01b81525f600482015260240161029f565b6104cc816106a5565b50565b6104d76106f4565b60055460ff161561051b5760405162461bcd60e51b815260206004820152600e60248201526d109c9a5919d94e881c185d5cd95960921b604482015260640161029f565b6001600160a01b0383165f9081526003602052604090205460ff166105825760405162461bcd60e51b815260206004820152601b60248201527f4272696467653a20746f6b656e206e6f7420737570706f727465640000000000604482015260640161029f565b5f82116105df5760405162461bcd60e51b815260206004820152602560248201527f4272696467653a20616d6f756e74206d75737420626520677265617465722074604482015264068616e20360dc1b606482015260840161029f565b6105f46001600160a01b03841633308561077d565b600280545f9182610604836108fd565b919050559050816001600160a01b0316336001600160a01b0316856001600160a01b03167f5fe47ed6d4225326d3303476197d782ded5a4e9c14f479dc9ec4992af4e85d598685604051610662929190918252602082015260400190565b60405180910390a45061067460018055565b505050565b5f546001600160a01b031633146102165760405163118cdaa760e01b815233600482015260240161029f565b5f80546001600160a01b038381166001600160a01b0319831681178455604051919092169283917f8be0079c531659141344cd1fd0a4f28419497f9722a3daafe3b4186f6b6457e09190a35050565b60026001540361071757604051633ee5aeb560e01b815260040160405180910390fd5b6002600155565b6040516001600160a01b0383811660248301526044820183905261067491859182169063a9059cbb906064015b604051602081830303815290604052915060e01b6020820180516001600160e01b0383818316178352505050506107b6565b6040516001600160a01b03848116602483015283811660448301526064820183905261045b9186918216906323b872dd9060840161074b565b5f8060205f8451602086015f885af1806107d5576040513d5f823e3d81fd5b50505f513d915081156107ec5780600114156107f9565b6001600160a01b0384163b155b1561045b57604051635274afe760e01b81526001600160a01b038516600482015260240161029f565b80356001600160a01b0381168114610838575f80fd5b919050565b5f6020828403121561084d575f80fd5b61085682610822565b9392505050565b5f805f8060808587031215610870575f80fd5b61087985610822565b935061088760208601610822565b93969395505050506040820135916060013590565b5f80604083850312156108ad575f80fd5b6108b683610822565b946020939093013593505050565b5f805f606084860312156108d6575f80fd5b6108df84610822565b9250602084013591506108f460408501610822565b90509250925092565b5f6001820161091a57634e487b7160e01b5f52601160045260245ffd5b506001019056fea2646970667358221220d3ca57ede7b5e9e6cce12278490e54e6adde175a2d7a7b8f1100928841878f9364736f6c63430008140033","linkReferences":{}},"methodIdentifiers":{"addSupportedToken(address)":"6d69fcaf","deposit(address,uint256,address)":"f45346dc","distribute(address,address,uint256,uint256)":"8fde6309","emergencyWithdraw(address,uint256)":"95ccea67","isSupportedToken(address)":"240028e8","owner()":"8da5cb5b","pause()":"8456cb59","removeSupportedToken(address)":"76319190","renounceOwnership()":"715018a6","transferOwnership(address)":"f2fde38b","unpause()":"3f4ba83a"},"id":36}